{
  "transactions": [
    {
      "hash": "0x2b713be5dd2b4fd399163f70c2b1187bf44129c6274b28fc5afabc2af50bb877",
      "transactionType": "CALL",
      "contractName": null,
      "contractAddress": "0xfb01a9d4b8702de192844356efcc157f7c5b3507",
      "function": "setPeer(uint32,bytes32)",
      "arguments": [
        "30110",
        "0x000000000000000000000000fb01a9d4b8702de192844356efcc157f7c5b3507"
      ],
      "transaction": {
        "from": "0xdbb7f8380dda6209ed3143ded6a0e7cfbad0646d",
        "to": "0xfb01a9d4b8702de192844356efcc157f7c5b3507",
        "gas": "0x113bc",
        "value": "0x0",
        "input": "0x3400288b000000000000000000000000000000000000000000000000000000000000759e000000000000000000000000fb01a9d4b8702de192844356efcc157f7c5b3507",
        "nonce": "0x1",
        "chainId": "0x2105"
      },
      "additionalContracts": [],
      "isFixedGasLimit": false
    }
  ],
  "receipts": [
    {
      "status": "0x1",
      "cumulativeGasUsed": "0x7e79ba",
      "logs": [
        {
          "address": "0xfb01a9d4b8702de192844356efcc157f7c5b3507",
          "topics": [
            "0x238399d427b947898edb290f5ff0f9109849b1c3ba196a42e35f00c50a54b98b"
          ],
          "data": "0x000000000000000000000000000000000000000000000000000000000000759e000000000000000000000000fb01a9d4b8702de192844356efcc157f7c5b3507",
          "blockHash": "0x0000000000000000000000000000000000000000000000000000000000000000",
          "blockNumber": "0x2886f20",
          "blockTimestamp": "0x699b3b23",
          "transactionHash": "0x2b713be5dd2b4fd399163f70c2b1187bf44129c6274b28fc5afabc2af50bb877",
          "transactionIndex": "0x1f",
          "logIndex": "0x109",
          "removed": false
        }
      ],
      "logsBloom": "0x00000000000000000000000000000000000000000000000000000000000100000000000000000000000000000000000000000000000000000800000000000000000000000000000000000000020000000000000000000000000000000000000000000000000000000000000000008000000000000000000000000000000000000000000000000000000000000000000000000000000000000000000000000000000000000000000000000000000000000000000000000000000002000000000000000000000000000000000000000000000000000000000000040000000000000000000000000000000000000000000000000000000000000000000000000000",
      "type": "0x2",
      "transactionHash": "0x2b713be5dd2b4fd399163f70c2b1187bf44129c6274b28fc5afabc2af50bb877",
      "transactionIndex": "0x1f",
      "blockHash": "0x0000000000000000000000000000000000000000000000000000000000000000",
      "blockNumber": "0x2886f20",
      "gasUsed": "0xbc8a",
      "effectiveGasPrice": "0x5e238c",
      "blobGasUsed": "0x364c",
      "from": "0xdbb7f8380dda6209ed3143ded6a0e7cfbad0646d",
      "to": "0xfb01a9d4b8702de192844356efcc157f7c5b3507",
      "contractAddress": null,
      "daFootprintGasScalar": "0x8b",
      "l1BaseFeeScalar": "0x8dd",
      "l1BlobBaseFee": "0x3ab97c",
      "l1BlobBaseFeeScalar": "0x101c12",
      "l1Fee": "0x2f048031",
      "l1GasPrice": "0x3b6ad44",
      "l1GasUsed": "0x640"
    }
  ],
  "libraries": [],
  "pending": [],
  "returns": {},
  "timestamp": 1771780897714,
  "chain": 8453,
  "commit": "c8dfd27"
}