{
  "transactions": [
    {
      "hash": null,
      "transactionType": "CALL",
      "contractName": null,
      "contractAddress": "0xfb01a9d4b8702de192844356efcc157f7c5b3507",
      "function": "setPeer(uint32,bytes32)",
      "arguments": [
        "30106",
        "0x000000000000000000000000fb01a9d4b8702de192844356efcc157f7c5b3507"
      ],
      "transaction": {
        "from": "0xdbb7f8380dda6209ed3143ded6a0e7cfbad0646d",
        "to": "0xfb01a9d4b8702de192844356efcc157f7c5b3507",
        "gas": "0xf7bd",
        "value": "0x0",
        "input": "0x3400288b000000000000000000000000000000000000000000000000000000000000759a000000000000000000000000fb01a9d4b8702de192844356efcc157f7c5b3507",
        "nonce": "0x4",
        "chainId": "0xa4b1"
      },
      "additionalContracts": [],
      "isFixedGasLimit": false
    }
  ],
  "receipts": [],
  "libraries": [],
  "pending": [],
  "returns": {},
  "timestamp": 1771787587352,
  "chain": 42161,
  "commit": "c8dfd27"
}