{
  "transactions": [
    {
      "hash": "0xd457efbe3546e613491ee32b5e79625172d552b0914b3f79d0041d1a38aadfa0",
      "transactionType": "CALL",
      "contractName": null,
      "contractAddress": "0xfb01a9d4b8702de192844356efcc157f7c5b3507",
      "function": "setPeer(uint32,bytes32)",
      "arguments": [
        "30184",
        "0x000000000000000000000000fb01a9d4b8702de192844356efcc157f7c5b3507"
      ],
      "transaction": {
        "from": "0xdbb7f8380dda6209ed3143ded6a0e7cfbad0646d",
        "to": "0xfb01a9d4b8702de192844356efcc157f7c5b3507",
        "gas": "0xf843",
        "value": "0x0",
        "input": "0x3400288b00000000000000000000000000000000000000000000000000000000000075e8000000000000000000000000fb01a9d4b8702de192844356efcc157f7c5b3507",
        "nonce": "0x2",
        "chainId": "0xa4b1"
      },
      "additionalContracts": [],
      "isFixedGasLimit": false
    }
  ],
  "receipts": [
    {
      "status": "0x1",
      "cumulativeGasUsed": "0xbd45",
      "logs": [
        {
          "address": "0xfb01a9d4b8702de192844356efcc157f7c5b3507",
          "topics": [
            "0x238399d427b947898edb290f5ff0f9109849b1c3ba196a42e35f00c50a54b98b"
          ],
          "data": "0x00000000000000000000000000000000000000000000000000000000000075e8000000000000000000000000fb01a9d4b8702de192844356efcc157f7c5b3507",
          "blockHash": "0x7eee7f5a8f62fc211b96ac50472c7cdb349f7b003ca2012caea191015bce58d2",
          "blockNumber": "0x19eb48e4",
          "blockTimestamp": "0x699b3b1e",
          "transactionHash": "0xd457efbe3546e613491ee32b5e79625172d552b0914b3f79d0041d1a38aadfa0",
          "transactionIndex": "0x1",
          "logIndex": "0x0",
          "removed": false
        }
      ],
      "logsBloom": "0x00000000000000000000000000000000000000000000000000000000000100000000000000000000000000000000000000000000000000000800000000000000000000000000000000000000020000000000000000000000000000000000000000000000000000000000000000008000000000000000000000000000000000000000000000000000000000000000000000000000000000000000000000000000000000000000000000000000000000000000000000000000000002000000000000000000000000000000000000000000000000000000000000040000000000000000000000000000000000000000000000000000000000000000000000000000",
      "type": "0x2",
      "transactionHash": "0xd457efbe3546e613491ee32b5e79625172d552b0914b3f79d0041d1a38aadfa0",
      "transactionIndex": "0x1",
      "blockHash": "0x7eee7f5a8f62fc211b96ac50472c7cdb349f7b003ca2012caea191015bce58d2",
      "blockNumber": "0x19eb48e4",
      "gasUsed": "0xbd45",
      "effectiveGasPrice": "0x1322ed0",
      "from": "0xdbb7f8380dda6209ed3143ded6a0e7cfbad0646d",
      "to": "0xfb01a9d4b8702de192844356efcc157f7c5b3507",
      "contractAddress": null,
      "gasUsedForL1": "0xbb",
      "l1BlockNumber": "0x1760d4f",
      "timeboosted": false
    }
  ],
  "libraries": [],
  "pending": [],
  "returns": {},
  "timestamp": 1771780894576,
  "chain": 42161,
  "commit": "c8dfd27"
}