{
  "transactions": [
    {
      "hash": "0x00ff3280bdafee714c2e4087b7afe1a2c5252b9b101b5f2269cea12bcce5c453",
      "transactionType": "CALL",
      "contractName": null,
      "contractAddress": "0xfb01a9d4b8702de192844356efcc157f7c5b3507",
      "function": "setPeer(uint32,bytes32)",
      "arguments": [
        "30110",
        "0x000000000000000000000000fb01a9d4b8702de192844356efcc157f7c5b3507"
      ],
      "transaction": {
        "from": "0xdbb7f8380dda6209ed3143ded6a0e7cfbad0646d",
        "to": "0xfb01a9d4b8702de192844356efcc157f7c5b3507",
        "gas": "0x113bc",
        "value": "0x0",
        "input": "0x3400288b000000000000000000000000000000000000000000000000000000000000759e000000000000000000000000fb01a9d4b8702de192844356efcc157f7c5b3507",
        "nonce": "0x1",
        "chainId": "0xa86a"
      },
      "additionalContracts": [],
      "isFixedGasLimit": false
    }
  ],
  "receipts": [
    {
      "status": "0x1",
      "cumulativeGasUsed": "0x4149b",
      "logs": [
        {
          "address": "0xfb01a9d4b8702de192844356efcc157f7c5b3507",
          "topics": [
            "0x238399d427b947898edb290f5ff0f9109849b1c3ba196a42e35f00c50a54b98b"
          ],
          "data": "0x000000000000000000000000000000000000000000000000000000000000759e000000000000000000000000fb01a9d4b8702de192844356efcc157f7c5b3507",
          "blockHash": "0xae444d9e8c59e8b7668b89460c9d64f104e3d3292e5f24edfaf7af6170f093f2",
          "blockNumber": "0x4b16362",
          "transactionHash": "0x00ff3280bdafee714c2e4087b7afe1a2c5252b9b101b5f2269cea12bcce5c453",
          "transactionIndex": "0x7",
          "logIndex": "0x3",
          "removed": false
        }
      ],
      "logsBloom": "0x00000000000000000000000000000000000000000000000000000000000100000000000000000000000000000000000000000000000000000800000000000000000000000000000000000000020000000000000000000000000000000000000000000000000000000000000000008000000000000000000000000000000000000000000000000000000000000000000000000000000000000000000000000000000000000000000000000000000000000000000000000000000002000000000000000000000000000000000000000000000000000000000000040000000000000000000000000000000000000000000000000000000000000000000000000000",
      "type": "0x2",
      "transactionHash": "0x00ff3280bdafee714c2e4087b7afe1a2c5252b9b101b5f2269cea12bcce5c453",
      "transactionIndex": "0x7",
      "blockHash": "0xae444d9e8c59e8b7668b89460c9d64f104e3d3292e5f24edfaf7af6170f093f2",
      "blockNumber": "0x4b16362",
      "gasUsed": "0xbc8a",
      "effectiveGasPrice": "0x99564de",
      "from": "0xdbb7f8380dda6209ed3143ded6a0e7cfbad0646d",
      "to": "0xfb01a9d4b8702de192844356efcc157f7c5b3507",
      "contractAddress": null
    }
  ],
  "libraries": [],
  "pending": [],
  "returns": {},
  "timestamp": 1771787561556,
  "chain": 43114,
  "commit": "c8dfd27"
}