{
  "transactions": [
    {
      "hash": "0x2e28cbd5b113cc93202ef24924d2107004773cd569ded18237daf84f28fe66b8",
      "transactionType": "CALL",
      "contractName": null,
      "contractAddress": "0xfb01a9d4b8702de192844356efcc157f7c5b3507",
      "function": "setPeer(uint32,bytes32)",
      "arguments": [
        "30184",
        "0x000000000000000000000000fb01a9d4b8702de192844356efcc157f7c5b3507"
      ],
      "transaction": {
        "from": "0xdbb7f8380dda6209ed3143ded6a0e7cfbad0646d",
        "to": "0xfb01a9d4b8702de192844356efcc157f7c5b3507",
        "gas": "0x113bc",
        "value": "0x0",
        "input": "0x3400288b00000000000000000000000000000000000000000000000000000000000075e8000000000000000000000000fb01a9d4b8702de192844356efcc157f7c5b3507",
        "nonce": "0x2",
        "chainId": "0xa86a"
      },
      "additionalContracts": [],
      "isFixedGasLimit": false
    }
  ],
  "receipts": [
    {
      "status": "0x1",
      "cumulativeGasUsed": "0x2a7063",
      "logs": [
        {
          "address": "0xfb01a9d4b8702de192844356efcc157f7c5b3507",
          "topics": [
            "0x238399d427b947898edb290f5ff0f9109849b1c3ba196a42e35f00c50a54b98b"
          ],
          "data": "0x00000000000000000000000000000000000000000000000000000000000075e8000000000000000000000000fb01a9d4b8702de192844356efcc157f7c5b3507",
          "blockHash": "0x521fe702bb1d14f6070bceb30358286491c1392b7c72784de1130178de05868a",
          "blockNumber": "0x4b16399",
          "transactionHash": "0x2e28cbd5b113cc93202ef24924d2107004773cd569ded18237daf84f28fe66b8",
          "transactionIndex": "0x23",
          "logIndex": "0x21",
          "removed": false
        }
      ],
      "logsBloom": "0x00000000000000000000000000000000000000000000000000000000000100000000000000000000000000000000000000000000000000000800000000000000000000000000000000000000020000000000000000000000000000000000000000000000000000000000000000008000000000000000000000000000000000000000000000000000000000000000000000000000000000000000000000000000000000000000000000000000000000000000000000000000000002000000000000000000000000000000000000000000000000000000000000040000000000000000000000000000000000000000000000000000000000000000000000000000",
      "type": "0x2",
      "transactionHash": "0x2e28cbd5b113cc93202ef24924d2107004773cd569ded18237daf84f28fe66b8",
      "transactionIndex": "0x23",
      "blockHash": "0x521fe702bb1d14f6070bceb30358286491c1392b7c72784de1130178de05868a",
      "blockNumber": "0x4b16399",
      "gasUsed": "0xbc8a",
      "effectiveGasPrice": "0xb2301b2",
      "from": "0xdbb7f8380dda6209ed3143ded6a0e7cfbad0646d",
      "to": "0xfb01a9d4b8702de192844356efcc157f7c5b3507",
      "contractAddress": null
    }
  ],
  "libraries": [],
  "pending": [],
  "returns": {},
  "timestamp": 1771787621472,
  "chain": 43114,
  "commit": "c8dfd27"
}