{
  "transactions": [
    {
      "hash": "0x425baf35c622a4bde86cd0a03bc3376ea4aa51df8aae228ba821aa33ae64289b",
      "transactionType": "CALL",
      "contractName": null,
      "contractAddress": "0x6d93b186ee96eabb599bc8622b6871ba2e30a92b",
      "function": "setPeer(uint32,bytes32)",
      "arguments": [
        "40231",
        "0x000000000000000000000000d27e41ede068116ebf23586409bb3b71918480ee"
      ],
      "transaction": {
        "from": "0x81ca817ce403dd2313ed7b9c1bb4423957562fed",
        "to": "0x6d93b186ee96eabb599bc8622b6871ba2e30a92b",
        "gas": "0x1044c",
        "value": "0x0",
        "input": "0x3400288b0000000000000000000000000000000000000000000000000000000000009d27000000000000000000000000d27e41ede068116ebf23586409bb3b71918480ee",
        "nonce": "0x15",
        "chainId": "0x14a34"
      },
      "additionalContracts": [],
      "isFixedGasLimit": false
    }
  ],
  "receipts": [
    {
      "status": "0x1",
      "cumulativeGasUsed": "0x5472ec",
      "logs": [
        {
          "address": "0x6d93b186ee96eabb599bc8622b6871ba2e30a92b",
          "topics": [
            "0x238399d427b947898edb290f5ff0f9109849b1c3ba196a42e35f00c50a54b98b"
          ],
          "data": "0x0000000000000000000000000000000000000000000000000000000000009d27000000000000000000000000d27e41ede068116ebf23586409bb3b71918480ee",
          "blockHash": "0x0000000000000000000000000000000000000000000000000000000000000000",
          "blockNumber": "0x24efd06",
          "blockTimestamp": "0x69b158ec",
          "transactionHash": "0x425baf35c622a4bde86cd0a03bc3376ea4aa51df8aae228ba821aa33ae64289b",
          "transactionIndex": "0x1b",
          "logIndex": "0xbc",
          "removed": false
        }
      ],
      "logsBloom": "0x00000000000000000000000000000000000000000000000000000000000000000000000000000000000000000000000000000000000000400800000004000000000000000000000000000000000000000000000000000000000000000000000000000000000000000000000000000000000000000000000000000000000000000000000000000000000000000000000000000000000000000000000000000000000000000000000000000000000000000008000000000000000002000000000000000000000000000000000000000000000000000000000000040000000000000000000000000000000000000000000000000000000000000000000000000000",
      "type": "0x2",
      "transactionHash": "0x425baf35c622a4bde86cd0a03bc3376ea4aa51df8aae228ba821aa33ae64289b",
      "transactionIndex": "0x1b",
      "blockHash": "0x0000000000000000000000000000000000000000000000000000000000000000",
      "blockNumber": "0x24efd06",
      "gasUsed": "0xbc74",
      "effectiveGasPrice": "0x5b8d80",
      "blobGasUsed": "0x364c",
      "from": "0x81ca817ce403dd2313ed7b9c1bb4423957562fed",
      "to": "0x6d93b186ee96eabb599bc8622b6871ba2e30a92b",
      "contractAddress": null,
      "daFootprintGasScalar": "0x8b",
      "l1BaseFeeScalar": "0x44d",
      "l1BlobBaseFee": "0x1",
      "l1BlobBaseFeeScalar": "0xa118b",
      "l1Fee": "0x53",
      "l1GasPrice": "0xa",
      "l1GasUsed": "0x640"
    }
  ],
  "libraries": [],
  "pending": [],
  "returns": {},
  "timestamp": 1773230316076,
  "chain": 84532,
  "commit": "8c83405"
}