{
  "transactions": [
    {
      "hash": "0x9e774c0a0ec5f053e71d062442910df893471897b2a091a155d82ef60ac2e7f3",
      "transactionType": "CALL",
      "contractName": null,
      "contractAddress": "0x0036bcea2b1037f514782e9fc3fb68b02ad1ace8",
      "function": "setPeer(uint32,bytes32)",
      "arguments": [
        "40231",
        "0x000000000000000000000000f0b05608b456f3aa388e8ea8d2e86ee399e7e0b4"
      ],
      "transaction": {
        "from": "0x81ca817ce403dd2313ed7b9c1bb4423957562fed",
        "to": "0x0036bcea2b1037f514782e9fc3fb68b02ad1ace8",
        "gas": "0x1044c",
        "value": "0x0",
        "input": "0x3400288b0000000000000000000000000000000000000000000000000000000000009d27000000000000000000000000f0b05608b456f3aa388e8ea8d2e86ee399e7e0b4",
        "nonce": "0x20",
        "chainId": "0x14a34"
      },
      "additionalContracts": [],
      "isFixedGasLimit": false
    }
  ],
  "receipts": [
    {
      "status": "0x1",
      "cumulativeGasUsed": "0x63774c",
      "logs": [
        {
          "address": "0x0036bcea2b1037f514782e9fc3fb68b02ad1ace8",
          "topics": [
            "0x238399d427b947898edb290f5ff0f9109849b1c3ba196a42e35f00c50a54b98b"
          ],
          "data": "0x0000000000000000000000000000000000000000000000000000000000009d27000000000000000000000000f0b05608b456f3aa388e8ea8d2e86ee399e7e0b4",
          "blockHash": "0x1592ae4f3893bdc5b7efe5353ac93fd262ce16365f34d6e5cf5a2bdf5f41a409",
          "blockNumber": "0x24f0d44",
          "blockTimestamp": "0x69b17968",
          "transactionHash": "0x9e774c0a0ec5f053e71d062442910df893471897b2a091a155d82ef60ac2e7f3",
          "transactionIndex": "0x21",
          "logIndex": "0x104",
          "removed": false
        }
      ],
      "logsBloom": "0x00000000000000000000000000000000040000000000000000000000000000000000000000000000000000000000000000000000000000000800000000000000000000000000000000000000000400000000000000000000000000000000000000000000000000000000000000000000000000000000000000000000000800000000000000000000000000000000000000000000000000000000000000000000000000000000000000000000000000000000000000000000000002000000000000000000000000000000000000000000000000000000000000040000000000000000000000000000000000000000000000000000000000000000000000000000",
      "type": "0x2",
      "transactionHash": "0x9e774c0a0ec5f053e71d062442910df893471897b2a091a155d82ef60ac2e7f3",
      "transactionIndex": "0x21",
      "blockHash": "0x1592ae4f3893bdc5b7efe5353ac93fd262ce16365f34d6e5cf5a2bdf5f41a409",
      "blockNumber": "0x24f0d44",
      "gasUsed": "0xbc74",
      "effectiveGasPrice": "0x5b8d80",
      "blobGasUsed": "0x364c",
      "from": "0x81ca817ce403dd2313ed7b9c1bb4423957562fed",
      "to": "0x0036bcea2b1037f514782e9fc3fb68b02ad1ace8",
      "contractAddress": null,
      "daFootprintGasScalar": "0x8b",
      "l1BaseFeeScalar": "0x44d",
      "l1BlobBaseFee": "0x1",
      "l1BlobBaseFeeScalar": "0xa118b",
      "l1Fee": "0x57",
      "l1GasPrice": "0xc",
      "l1GasUsed": "0x640"
    }
  ],
  "libraries": [],
  "pending": [],
  "returns": {},
  "timestamp": 1773238633452,
  "chain": 84532,
  "commit": "11ebf92"
}