{
  "transactions": [
    {
      "hash": "0xc6914246d292abe03246c85858e310de48eca47de00328235687c529718581e6",
      "transactionType": "CALL",
      "contractName": null,
      "contractAddress": "0xf0b05608b456f3aa388e8ea8d2e86ee399e7e0b4",
      "function": "setPeer(uint32,bytes32)",
      "arguments": [
        "40245",
        "0x0000000000000000000000000036bcea2b1037f514782e9fc3fb68b02ad1ace8"
      ],
      "transaction": {
        "from": "0x81ca817ce403dd2313ed7b9c1bb4423957562fed",
        "to": "0xf0b05608b456f3aa388e8ea8d2e86ee399e7e0b4",
        "gas": "0xf6e3",
        "value": "0x0",
        "input": "0x3400288b0000000000000000000000000000000000000000000000000000000000009d350000000000000000000000000036bcea2b1037f514782e9fc3fb68b02ad1ace8",
        "nonce": "0xb",
        "chainId": "0x66eee"
      },
      "additionalContracts": [],
      "isFixedGasLimit": false
    }
  ],
  "receipts": [
    {
      "status": "0x1",
      "cumulativeGasUsed": "0x47efb",
      "logs": [
        {
          "address": "0xf0b05608b456f3aa388e8ea8d2e86ee399e7e0b4",
          "topics": [
            "0x238399d427b947898edb290f5ff0f9109849b1c3ba196a42e35f00c50a54b98b"
          ],
          "data": "0x0000000000000000000000000000000000000000000000000000000000009d350000000000000000000000000036bcea2b1037f514782e9fc3fb68b02ad1ace8",
          "blockHash": "0xd04d9ac4f66a0aa5bcffc0141ce1d51bfcbf0ea39de12378f0d3fce025120897",
          "blockNumber": "0xed90ba7",
          "blockTimestamp": "0x69b17969",
          "transactionHash": "0xc6914246d292abe03246c85858e310de48eca47de00328235687c529718581e6",
          "transactionIndex": "0x2",
          "logIndex": "0x1",
          "removed": false
        }
      ],
      "logsBloom": "0x00000000000000000000000000000000000000000000000000000000000008000000000000000000000000000000000000000000000000000800000000000000000000000000000000000000000000000000000000000000000000000000000000000000000000000000000000000000000000000000000000000000000000000000000000000000000000800000000000000000000000000000000001000000000000000000000000000000000000000000000000000000000002000000000000000000000000000000000000000000000000000000000000040000000000000000000000000000000000000000000000000000000000000000000000000000",
      "type": "0x2",
      "transactionHash": "0xc6914246d292abe03246c85858e310de48eca47de00328235687c529718581e6",
      "transactionIndex": "0x2",
      "blockHash": "0xd04d9ac4f66a0aa5bcffc0141ce1d51bfcbf0ea39de12378f0d3fce025120897",
      "blockNumber": "0xed90ba7",
      "gasUsed": "0xbc68",
      "effectiveGasPrice": "0x131f820",
      "from": "0x81ca817ce403dd2313ed7b9c1bb4423957562fed",
      "to": "0xf0b05608b456f3aa388e8ea8d2e86ee399e7e0b4",
      "contractAddress": null,
      "gasUsedForL1": "0x0",
      "l1BlockNumber": "0x9f1b31",
      "timeboosted": false
    }
  ],
  "libraries": [],
  "pending": [],
  "returns": {},
  "timestamp": 1773238633747,
  "chain": 421614,
  "commit": "11ebf92"
}