{
  "transactions": [
    {
      "hash": "0x9cf0fe5dd9276a1e099f6d838b014beb117321fca022f830d21916248d170e75",
      "transactionType": "CALL",
      "contractName": null,
      "contractAddress": "0x245972ee17c2fde04109cb379ae6027906e94290",
      "function": "setPeer(uint32,bytes32)",
      "arguments": [
        "40245",
        "0x000000000000000000000000a613d3de07343dc46cbc87a101f608666595f07a"
      ],
      "transaction": {
        "from": "0x81ca817ce403dd2313ed7b9c1bb4423957562fed",
        "to": "0x245972ee17c2fde04109cb379ae6027906e94290",
        "gas": "0xf6f3",
        "value": "0x0",
        "input": "0x3400288b0000000000000000000000000000000000000000000000000000000000009d35000000000000000000000000a613d3de07343dc46cbc87a101f608666595f07a",
        "nonce": "0x8",
        "chainId": "0x66eee"
      },
      "additionalContracts": [],
      "isFixedGasLimit": false
    }
  ],
  "receipts": [
    {
      "status": "0x1",
      "cumulativeGasUsed": "0x245bd",
      "logs": [
        {
          "address": "0x245972ee17c2fde04109cb379ae6027906e94290",
          "topics": [
            "0x238399d427b947898edb290f5ff0f9109849b1c3ba196a42e35f00c50a54b98b"
          ],
          "data": "0x0000000000000000000000000000000000000000000000000000000000009d35000000000000000000000000a613d3de07343dc46cbc87a101f608666595f07a",
          "blockHash": "0x5b2b972879af0ec80edb641567c3641e7f0bbcda91782a844a02283dd1813604",
          "blockNumber": "0xed8b4c7",
          "blockTimestamp": "0x69b16299",
          "transactionHash": "0x9cf0fe5dd9276a1e099f6d838b014beb117321fca022f830d21916248d170e75",
          "transactionIndex": "0x2",
          "logIndex": "0x1",
          "removed": false
        }
      ],
      "logsBloom": "0x00000000000000000000000000000000000000000000000080000000000000000000000000000000000000000000000000000000000000000800000000000000000000000000010000000000000000000000000000000000000000000000000000000000000000000000000000000000000000000000000000000000000000000000000000000000000000000000000000000000000000000000000001000000000000000000000000000000000000000000000000000000000002000000000000000000000000000000000000000000000000000000000000040000000000000000000000000000000000000000000000000000000000000000000000000000",
      "type": "0x2",
      "transactionHash": "0x9cf0fe5dd9276a1e099f6d838b014beb117321fca022f830d21916248d170e75",
      "transactionIndex": "0x2",
      "blockHash": "0x5b2b972879af0ec80edb641567c3641e7f0bbcda91782a844a02283dd1813604",
      "blockNumber": "0xed8b4c7",
      "gasUsed": "0xbc74",
      "effectiveGasPrice": "0x1317b20",
      "from": "0x81ca817ce403dd2313ed7b9c1bb4423957562fed",
      "to": "0x245972ee17c2fde04109cb379ae6027906e94290",
      "contractAddress": null,
      "gasUsedForL1": "0x0",
      "l1BlockNumber": "0x9f198b",
      "timeboosted": false
    }
  ],
  "libraries": [],
  "pending": [],
  "returns": {},
  "timestamp": 1773232794355,
  "chain": 421614,
  "commit": "8c83405"
}