{
  "transactions": [
    {
      "hash": "0xbf136b23f147e60b9b215cb3ee24d5f059b5d6922e56be2ccffe8e1d291f8e0a",
      "transactionType": "CALL",
      "contractName": null,
      "contractAddress": "0x8b65575c2730634f0ab9143d10f30b46f8a19239",
      "function": "setPeer(uint32,bytes32)",
      "arguments": [
        "40245",
        "0x000000000000000000000000746f03efddbc9d9bfbd21538f9d67600fc45553d"
      ],
      "transaction": {
        "from": "0x81ca817ce403dd2313ed7b9c1bb4423957562fed",
        "to": "0x8b65575c2730634f0ab9143d10f30b46f8a19239",
        "gas": "0xf6e3",
        "value": "0x0",
        "input": "0x3400288b0000000000000000000000000000000000000000000000000000000000009d35000000000000000000000000746f03efddbc9d9bfbd21538f9d67600fc45553d",
        "nonce": "0x5",
        "chainId": "0x66eee"
      },
      "additionalContracts": [],
      "isFixedGasLimit": false
    }
  ],
  "receipts": [
    {
      "status": "0x1",
      "cumulativeGasUsed": "0x256d5",
      "logs": [
        {
          "address": "0x8b65575c2730634f0ab9143d10f30b46f8a19239",
          "topics": [
            "0x238399d427b947898edb290f5ff0f9109849b1c3ba196a42e35f00c50a54b98b"
          ],
          "data": "0x0000000000000000000000000000000000000000000000000000000000009d35000000000000000000000000746f03efddbc9d9bfbd21538f9d67600fc45553d",
          "blockHash": "0xf2d385086ea9b47294d9cc30b31b85afd6042143252c3627b8b71d9913118728",
          "blockNumber": "0xed8a910",
          "blockTimestamp": "0x69b15f84",
          "transactionHash": "0xbf136b23f147e60b9b215cb3ee24d5f059b5d6922e56be2ccffe8e1d291f8e0a",
          "transactionIndex": "0x2",
          "logIndex": "0x3",
          "removed": false
        }
      ],
      "logsBloom": "0x00000000000000000000000000000000000000000000000000000000000000000000000000000000000000000000000000000000000000000800000000000000000000000000000000000000000010000000000004000000000000000000000000000000000000000000000000000000000000000000000000002000000000000000000000000000000000000000000000000000000000000000000000000000000000000000000000000000000000000000000000000000000002000000000000000000000000000000000000000000000000000000000000040000000000000000000000000000000000000000000000000000000000000000000000000000",
      "type": "0x2",
      "transactionHash": "0xbf136b23f147e60b9b215cb3ee24d5f059b5d6922e56be2ccffe8e1d291f8e0a",
      "transactionIndex": "0x2",
      "blockHash": "0xf2d385086ea9b47294d9cc30b31b85afd6042143252c3627b8b71d9913118728",
      "blockNumber": "0xed8a910",
      "gasUsed": "0xbc68",
      "effectiveGasPrice": "0x1312d00",
      "from": "0x81ca817ce403dd2313ed7b9c1bb4423957562fed",
      "to": "0x8b65575c2730634f0ab9143d10f30b46f8a19239",
      "contractAddress": null,
      "gasUsedForL1": "0x0",
      "l1BlockNumber": "0x9f1950",
      "timeboosted": false
    }
  ],
  "libraries": [],
  "pending": [],
  "returns": {},
  "timestamp": 1773232005023,
  "chain": 421614,
  "commit": "8c83405"
}